{
  "_format": "hh3-artifact-1",
  "contractName": "MyNFT",
  "sourceName": "contracts/MyNFT.sol",
  "abi": [
    {
      "inputs": [],
      "stateMutability": "nonpayable",
      "type": "constructor"
    },
    {
      "inputs": [
        {
          "internalType": "address",
          "name": "sender",
          "type": "address"
        },
        {
          "internalType": "uint256",
          "name": "tokenId",
          "type": "uint256"
        },
        {
          "internalType": "address",
          "name": "owner",
          "type": "address"
        }
      ],
      "name": "ERC721IncorrectOwner",
      "type": "error"
    },
    {
      "inputs": [
        {
          "internalType": "address",
          "name": "operator",
          "type": "address"
        },
        {
          "internalType": "uint256",
          "name": "tokenId",
          "type": "uint256"
        }
      ],
      "name": "ERC721InsufficientApproval",
      "type": "error"
    },
    {
      "inputs": [
        {
          "internalType": "address",
          "name": "approver",
          "type": "address"
        }
      ],
      "name": "ERC721InvalidApprover",
      "type": "error"
    },
    {
      "inputs": [
        {
          "internalType": "address",
          "name": "operator",
          "type": "address"
        }
      ],
      "name": "ERC721InvalidOperator",
      "type": "error"
    },
    {
      "inputs": [
        {
          "internalType": "address",
          "name": "owner",
          "type": "address"
        }
      ],
      "name": "ERC721InvalidOwner",
      "type": "error"
    },
    {
      "inputs": [
        {
          "internalType": "address",
          "name": "receiver",
          "type": "address"
        }
      ],
      "name": "ERC721InvalidReceiver",
      "type": "error"
    },
    {
      "inputs": [
        {
          "internalType": "address",
          "name": "sender",
          "type": "address"
        }
      ],
      "name": "ERC721InvalidSender",
      "type": "error"
    },
    {
      "inputs": [
        {
          "internalType": "uint256",
          "name": "tokenId",
          "type": "uint256"
        }
      ],
      "name": "ERC721NonexistentToken",
      "type": "error"
    },
    {
      "anonymous": false,
      "inputs": [
        {
          "indexed": true,
          "internalType": "address",
          "name": "owner",
          "type": "address"
        },
        {
          "indexed": true,
          "internalType": "address",
          "name": "approved",
          "type": "address"
        },
        {
          "indexed": true,
          "internalType": "uint256",
          "name": "tokenId",
          "type": "uint256"
        }
      ],
      "name": "Approval",
      "type": "event"
    },
    {
      "anonymous": false,
      "inputs": [
        {
          "indexed": true,
          "internalType": "address",
          "name": "owner",
          "type": "address"
        },
        {
          "indexed": true,
          "internalType": "address",
          "name": "operator",
          "type": "address"
        },
        {
          "indexed": false,
          "internalType": "bool",
          "name": "approved",
          "type": "bool"
        }
      ],
      "name": "ApprovalForAll",
      "type": "event"
    },
    {
      "anonymous": false,
      "inputs": [
        {
          "indexed": false,
          "internalType": "uint256",
          "name": "_fromTokenId",
          "type": "uint256"
        },
        {
          "indexed": false,
          "internalType": "uint256",
          "name": "_toTokenId",
          "type": "uint256"
        }
      ],
      "name": "BatchMetadataUpdate",
      "type": "event"
    },
    {
      "anonymous": false,
      "inputs": [
        {
          "indexed": false,
          "internalType": "uint256",
          "name": "_tokenId",
          "type": "uint256"
        }
      ],
      "name": "MetadataUpdate",
      "type": "event"
    },
    {
      "anonymous": false,
      "inputs": [
        {
          "indexed": true,
          "internalType": "address",
          "name": "from",
          "type": "address"
        },
        {
          "indexed": true,
          "internalType": "address",
          "name": "to",
          "type": "address"
        },
        {
          "indexed": true,
          "internalType": "uint256",
          "name": "tokenId",
          "type": "uint256"
        }
      ],
      "name": "Transfer",
      "type": "event"
    },
    {
      "inputs": [
        {
          "internalType": "address",
          "name": "to",
          "type": "address"
        },
        {
          "internalType": "uint256",
          "name": "tokenId",
          "type": "uint256"
        }
      ],
      "name": "approve",
      "outputs": [],
      "stateMutability": "nonpayable",
      "type": "function"
    },
    {
      "inputs": [
        {
          "internalType": "address",
          "name": "owner",
          "type": "address"
        }
      ],
      "name": "balanceOf",
      "outputs": [
        {
          "internalType": "uint256",
          "name": "",
          "type": "uint256"
        }
      ],
      "stateMutability": "view",
      "type": "function"
    },
    {
      "inputs": [
        {
          "internalType": "uint256",
          "name": "tokenId",
          "type": "uint256"
        }
      ],
      "name": "getApproved",
      "outputs": [
        {
          "internalType": "address",
          "name": "",
          "type": "address"
        }
      ],
      "stateMutability": "view",
      "type": "function"
    },
    {
      "inputs": [
        {
          "internalType": "address",
          "name": "owner",
          "type": "address"
        },
        {
          "internalType": "address",
          "name": "operator",
          "type": "address"
        }
      ],
      "name": "isApprovedForAll",
      "outputs": [
        {
          "internalType": "bool",
          "name": "",
          "type": "bool"
        }
      ],
      "stateMutability": "view",
      "type": "function"
    },
    {
      "inputs": [
        {
          "internalType": "string",
          "name": "tokenURI",
          "type": "string"
        }
      ],
      "name": "mint",
      "outputs": [],
      "stateMutability": "nonpayable",
      "type": "function"
    },
    {
      "inputs": [],
      "name": "name",
      "outputs": [
        {
          "internalType": "string",
          "name": "",
          "type": "string"
        }
      ],
      "stateMutability": "view",
      "type": "function"
    },
    {
      "inputs": [],
      "name": "nextTokenId",
      "outputs": [
        {
          "internalType": "uint256",
          "name": "",
          "type": "uint256"
        }
      ],
      "stateMutability": "view",
      "type": "function"
    },
    {
      "inputs": [
        {
          "internalType": "uint256",
          "name": "tokenId",
          "type": "uint256"
        }
      ],
      "name": "ownerOf",
      "outputs": [
        {
          "internalType": "address",
          "name": "",
          "type": "address"
        }
      ],
      "stateMutability": "view",
      "type": "function"
    },
    {
      "inputs": [
        {
          "internalType": "address",
          "name": "from",
          "type": "address"
        },
        {
          "internalType": "address",
          "name": "to",
          "type": "address"
        },
        {
          "internalType": "uint256",
          "name": "tokenId",
          "type": "uint256"
        }
      ],
      "name": "safeTransferFrom",
      "outputs": [],
      "stateMutability": "nonpayable",
      "type": "function"
    },
    {
      "inputs": [
        {
          "internalType": "address",
          "name": "from",
          "type": "address"
        },
        {
          "internalType": "address",
          "name": "to",
          "type": "address"
        },
        {
          "internalType": "uint256",
          "name": "tokenId",
          "type": "uint256"
        },
        {
          "internalType": "bytes",
          "name": "data",
          "type": "bytes"
        }
      ],
      "name": "safeTransferFrom",
      "outputs": [],
      "stateMutability": "nonpayable",
      "type": "function"
    },
    {
      "inputs": [
        {
          "internalType": "address",
          "name": "operator",
          "type": "address"
        },
        {
          "internalType": "bool",
          "name": "approved",
          "type": "bool"
        }
      ],
      "name": "setApprovalForAll",
      "outputs": [],
      "stateMutability": "nonpayable",
      "type": "function"
    },
    {
      "inputs": [
        {
          "internalType": "bytes4",
          "name": "interfaceId",
          "type": "bytes4"
        }
      ],
      "name": "supportsInterface",
      "outputs": [
        {
          "internalType": "bool",
          "name": "",
          "type": "bool"
        }
      ],
      "stateMutability": "view",
      "type": "function"
    },
    {
      "inputs": [],
      "name": "symbol",
      "outputs": [
        {
          "internalType": "string",
          "name": "",
          "type": "string"
        }
      ],
      "stateMutability": "view",
      "type": "function"
    },
    {
      "inputs": [
        {
          "internalType": "uint256",
          "name": "tokenId",
          "type": "uint256"
        }
      ],
      "name": "tokenURI",
      "outputs": [
        {
          "internalType": "string",
          "name": "",
          "type": "string"
        }
      ],
      "stateMutability": "view",
      "type": "function"
    },
    {
      "inputs": [
        {
          "internalType": "address",
          "name": "from",
          "type": "address"
        },
        {
          "internalType": "address",
          "name": "to",
          "type": "address"
        },
        {
          "internalType": "uint256",
          "name": "tokenId",
          "type": "uint256"
        }
      ],
      "name": "transferFrom",
      "outputs": [],
      "stateMutability": "nonpayable",
      "type": "function"
    }
  ],
  "bytecode": "0x608060405234801561000f575f5ffd5b506040518060400160405280600b81526020017f5072616e736875204e46540000000000000000000000000000000000000000008152506040518060400160405280600581526020017f50534e4654000000000000000000000000000000000000000000000000000000815250815f908161008a91906102df565b50806001908161009a91906102df565b5050506103ae565b5f81519050919050565b7f4e487b71000000000000000000000000000000000000000000000000000000005f52604160045260245ffd5b7f4e487b71000000000000000000000000000000000000000000000000000000005f52602260045260245ffd5b5f600282049050600182168061011d57607f821691505b6020821081036101305761012f6100d9565b5b50919050565b5f819050815f5260205f209050919050565b5f6020601f8301049050919050565b5f82821b905092915050565b5f600883026101927fffffffffffffffffffffffffffffffffffffffffffffffffffffffffffffffff82610157565b61019c8683610157565b95508019841693508086168417925050509392505050565b5f819050919050565b5f819050919050565b5f6101e06101db6101d6846101b4565b6101bd565b6101b4565b9050919050565b5f819050919050565b6101f9836101c6565b61020d610205826101e7565b848454610163565b825550505050565b5f5f905090565b610224610215565b61022f8184846101f0565b505050565b5b81811015610252576102475f8261021c565b600181019050610235565b5050565b601f8211156102975761026881610136565b61027184610148565b81016020851015610280578190505b61029461028c85610148565b830182610234565b50505b505050565b5f82821c905092915050565b5f6102b75f198460080261029c565b1980831691505092915050565b5f6102cf83836102a8565b9150826002028217905092915050565b6102e8826100a2565b67ffffffffffffffff811115610301576103006100ac565b5b61030b8254610106565b610316828285610256565b5f60209050601f831160018114610347575f8415610335578287015190505b61033f85826102c4565b8655506103a6565b601f19841661035586610136565b5f5b8281101561037c57848901518255600182019150602085019450602081019050610357565b868310156103995784890151610395601f8916826102a8565b8355505b6001600288020188555050505b505050505050565b6123a3806103bb5f395ff3fe608060405234801561000f575f5ffd5b50600436106100f3575f3560e01c806370a0823111610095578063b88d4fde11610064578063b88d4fde14610281578063c87b56dd1461029d578063d85d3d27146102cd578063e985e9c5146102e9576100f3565b806370a08231146101f957806375794a3c1461022957806395d89b4114610247578063a22cb46514610265576100f3565b8063095ea7b3116100d1578063095ea7b31461017557806323b872dd1461019157806342842e0e146101ad5780636352211e146101c9576100f3565b806301ffc9a7146100f757806306fdde0314610127578063081812fc14610145575b5f5ffd5b610111600480360381019061010c9190611886565b610319565b60405161011e91906118cb565b60405180910390f35b61012f610379565b60405161013c9190611954565b60405180910390f35b61015f600480360381019061015a91906119a7565b610408565b60405161016c9190611a11565b60405180910390f35b61018f600480360381019061018a9190611a54565b610423565b005b6101ab60048036038101906101a69190611a92565b610439565b005b6101c760048036038101906101c29190611a92565b610538565b005b6101e360048036038101906101de91906119a7565b610557565b6040516101f09190611a11565b60405180910390f35b610213600480360381019061020e9190611ae2565b610568565b6040516102209190611b1c565b60405180910390f35b61023161061e565b60405161023e9190611b1c565b60405180910390f35b61024f610624565b60405161025c9190611954565b60405180910390f35b61027f600480360381019061027a9190611b5f565b6106b4565b005b61029b60048036038101906102969190611cc9565b6106ca565b005b6102b760048036038101906102b291906119a7565b6106ef565b6040516102c49190611954565b60405180910390f35b6102e760048036038101906102e29190611de7565b61076b565b005b61030360048036038101906102fe9190611e2e565b6107a0565b60405161031091906118cb565b60405180910390f35b5f634906490660e01b7bffffffffffffffffffffffffffffffffffffffffffffffffffffffff1916827bffffffffffffffffffffffffffffffffffffffffffffffffffffffff1916148061037257506103718261082e565b5b9050919050565b60605f805461038790611e99565b80601f01602080910402602001604051908101604052809291908181526020018280546103b390611e99565b80156103fe5780601f106103d5576101008083540402835291602001916103fe565b820191905f5260205f20905b8154815290600101906020018083116103e157829003601f168201915b5050505050905090565b5f6104128261090f565b5061041c82610995565b9050919050565b61043582826104306109ce565b6109d5565b5050565b5f73ffffffffffffffffffffffffffffffffffffffff168273ffffffffffffffffffffffffffffffffffffffff16036104a9575f6040517f64a0ae920000000000000000000000000000000000000000000000000000000081526004016104a09190611a11565b60405180910390fd5b5f6104bc83836104b76109ce565b6109e7565b90508373ffffffffffffffffffffffffffffffffffffffff168173ffffffffffffffffffffffffffffffffffffffff1614610532578382826040517f64283d7b00000000000000000000000000000000000000000000000000000000815260040161052993929190611ec9565b60405180910390fd5b50505050565b61055283838360405180602001604052805f8152506106ca565b505050565b5f6105618261090f565b9050919050565b5f5f73ffffffffffffffffffffffffffffffffffffffff168273ffffffffffffffffffffffffffffffffffffffff16036105d9575f6040517f89c62b640000000000000000000000000000000000000000000000000000000081526004016105d09190611a11565b60405180910390fd5b60035f8373ffffffffffffffffffffffffffffffffffffffff1673ffffffffffffffffffffffffffffffffffffffff1681526020019081526020015f20549050919050565b60075481565b60606001805461063390611e99565b80601f016020809104026020016040519081016040528092919081815260200182805461065f90611e99565b80156106aa5780601f10610681576101008083540402835291602001916106aa565b820191905f5260205f20905b81548152906001019060200180831161068d57829003601f168201915b5050505050905090565b6106c66106bf6109ce565b8383610bf2565b5050565b6106d5848484610439565b6106e96106e06109ce565b85858585610dcb565b50505050565b60606106fa8261090f565b505f610704610f77565b90505f61071084610f8d565b90505f825103610724578092505050610766565b5f81511115610758578181604051602001610740929190611f38565b60405160208183030381529060405292505050610766565b6107618461102e565b925050505b919050565b5f600754905061077b3382611094565b61078581836110b1565b60075f81548092919061079790611f88565b91905055505050565b5f60055f8473ffffffffffffffffffffffffffffffffffffffff1673ffffffffffffffffffffffffffffffffffffffff1681526020019081526020015f205f8373ffffffffffffffffffffffffffffffffffffffff1673ffffffffffffffffffffffffffffffffffffffff1681526020019081526020015f205f9054906101000a900460ff16905092915050565b5f7f80ac58cd000000000000000000000000000000000000000000000000000000007bffffffffffffffffffffffffffffffffffffffffffffffffffffffff1916827bffffffffffffffffffffffffffffffffffffffffffffffffffffffff191614806108f857507f5b5e139f000000000000000000000000000000000000000000000000000000007bffffffffffffffffffffffffffffffffffffffffffffffffffffffff1916827bffffffffffffffffffffffffffffffffffffffffffffffffffffffff1916145b8061090857506109078261110b565b5b9050919050565b5f5f61091a83611174565b90505f73ffffffffffffffffffffffffffffffffffffffff168173ffffffffffffffffffffffffffffffffffffffff160361098c57826040517f7e2732890000000000000000000000000000000000000000000000000000000081526004016109839190611b1c565b60405180910390fd5b80915050919050565b5f60045f8381526020019081526020015f205f9054906101000a900473ffffffffffffffffffffffffffffffffffffffff169050919050565b5f33905090565b6109e283838360016111ad565b505050565b5f5f6109f284611174565b90505f73ffffffffffffffffffffffffffffffffffffffff168373ffffffffffffffffffffffffffffffffffffffff1614610a3357610a3281848661136c565b5b5f73ffffffffffffffffffffffffffffffffffffffff168173ffffffffffffffffffffffffffffffffffffffff1614610abe57610a725f855f5f6111ad565b600160035f8373ffffffffffffffffffffffffffffffffffffffff1673ffffffffffffffffffffffffffffffffffffffff1681526020019081526020015f205f82825403925050819055505b5f73ffffffffffffffffffffffffffffffffffffffff168573ffffffffffffffffffffffffffffffffffffffff1614610b3d57600160035f8773ffffffffffffffffffffffffffffffffffffffff1673ffffffffffffffffffffffffffffffffffffffff1681526020019081526020015f205f82825401925050819055505b8460025f8681526020019081526020015f205f6101000a81548173ffffffffffffffffffffffffffffffffffffffff021916908373ffffffffffffffffffffffffffffffffffffffff160217905550838573ffffffffffffffffffffffffffffffffffffffff168273ffffffffffffffffffffffffffffffffffffffff167fddf252ad1be2c89b69c2b068fc378daa952ba7f163c4a11628f55a4df523b3ef60405160405180910390a4809150509392505050565b5f73ffffffffffffffffffffffffffffffffffffffff168373ffffffffffffffffffffffffffffffffffffffff1603610c62575f6040517fa9fbf51f000000000000000000000000000000000000000000000000000000008152600401610c599190611a11565b60405180910390fd5b5f73ffffffffffffffffffffffffffffffffffffffff168273ffffffffffffffffffffffffffffffffffffffff1603610cd257816040517f5b08ba18000000000000000000000000000000000000000000000000000000008152600401610cc99190611a11565b60405180910390fd5b8060055f8573ffffffffffffffffffffffffffffffffffffffff1673ffffffffffffffffffffffffffffffffffffffff1681526020019081526020015f205f8473ffffffffffffffffffffffffffffffffffffffff1673ffffffffffffffffffffffffffffffffffffffff1681526020019081526020015f205f6101000a81548160ff0219169083151502179055508173ffffffffffffffffffffffffffffffffffffffff168373ffffffffffffffffffffffffffffffffffffffff167f17307eab39ab6107e8899845ad3d59bd9653f200f220920489ca2b5937696c3183604051610dbe91906118cb565b60405180910390a3505050565b5f8373ffffffffffffffffffffffffffffffffffffffff163b1115610f70578273ffffffffffffffffffffffffffffffffffffffff1663150b7a02868685856040518563ffffffff1660e01b8152600401610e299493929190612021565b6020604051808303815f875af1925050508015610e6457506040513d601f19601f82011682018060405250810190610e61919061207f565b60015b610ee5573d805f8114610e92576040519150601f19603f3d011682016040523d82523d5f602084013e610e97565b606091505b505f815103610edd57836040517f64a0ae92000000000000000000000000000000000000000000000000000000008152600401610ed49190611a11565b60405180910390fd5b805160208201fd5b63150b7a0260e01b7bffffffffffffffffffffffffffffffffffffffffffffffffffffffff1916817bffffffffffffffffffffffffffffffffffffffffffffffffffffffff191614610f6e57836040517f64a0ae92000000000000000000000000000000000000000000000000000000008152600401610f659190611a11565b60405180910390fd5b505b5050505050565b606060405180602001604052805f815250905090565b606060065f8381526020019081526020015f208054610fab90611e99565b80601f0160208091040260200160405190810160405280929190818152602001828054610fd790611e99565b80156110225780601f10610ff957610100808354040283529160200191611022565b820191905f5260205f20905b81548152906001019060200180831161100557829003601f168201915b50505050509050919050565b60606110398261090f565b505f611043610f77565b90505f8151116110615760405180602001604052805f81525061108c565b8061106b8461142f565b60405160200161107c929190611f38565b6040516020818303038152906040525b915050919050565b6110ad828260405180602001604052805f8152506114f9565b5050565b8060065f8481526020019081526020015f2090816110cf919061224a565b507ff8e1a15aba9398e019f0b49df1a4fde98ee17ae345cb5f6b5e2c27f5033e8ce7826040516110ff9190611b1c565b60405180910390a15050565b5f7f01ffc9a7000000000000000000000000000000000000000000000000000000007bffffffffffffffffffffffffffffffffffffffffffffffffffffffff1916827bffffffffffffffffffffffffffffffffffffffffffffffffffffffff1916149050919050565b5f60025f8381526020019081526020015f205f9054906101000a900473ffffffffffffffffffffffffffffffffffffffff169050919050565b80806111e557505f73ffffffffffffffffffffffffffffffffffffffff168273ffffffffffffffffffffffffffffffffffffffff1614155b15611317575f6111f48461090f565b90505f73ffffffffffffffffffffffffffffffffffffffff168373ffffffffffffffffffffffffffffffffffffffff161415801561125e57508273ffffffffffffffffffffffffffffffffffffffff168173ffffffffffffffffffffffffffffffffffffffff1614155b8015611271575061126f81846107a0565b155b156112b357826040517fa9fbf51f0000000000000000000000000000000000000000000000000000000081526004016112aa9190611a11565b60405180910390fd5b811561131557838573ffffffffffffffffffffffffffffffffffffffff168273ffffffffffffffffffffffffffffffffffffffff167f8c5be1e5ebec7d5bd14f71427d1e84f3dd0314c0f7b2291e5b200ac8c7c3b92560405160405180910390a45b505b8360045f8581526020019081526020015f205f6101000a81548173ffffffffffffffffffffffffffffffffffffffff021916908373ffffffffffffffffffffffffffffffffffffffff16021790555050505050565b61137783838361151c565b61142a575f73ffffffffffffffffffffffffffffffffffffffff168373ffffffffffffffffffffffffffffffffffffffff16036113eb57806040517f7e2732890000000000000000000000000000000000000000000000000000000081526004016113e29190611b1c565b60405180910390fd5b81816040517f177e802f000000000000000000000000000000000000000000000000000000008152600401611421929190612319565b60405180910390fd5b505050565b60605f600161143d846115dc565b0190505f8167ffffffffffffffff81111561145b5761145a611ba5565b5b6040519080825280601f01601f19166020018201604052801561148d5781602001600182028036833780820191505090505b5090505f82602083010190505b6001156114ee578080600190039150507f3031323334353637383961626364656600000000000000000000000000000000600a86061a8153600a85816114e3576114e2612340565b5b0494505f850361149a575b819350505050919050565b611503838361172d565b61151761150e6109ce565b5f858585610dcb565b505050565b5f5f73ffffffffffffffffffffffffffffffffffffffff168373ffffffffffffffffffffffffffffffffffffffff16141580156115d357508273ffffffffffffffffffffffffffffffffffffffff168473ffffffffffffffffffffffffffffffffffffffff161480611594575061159384846107a0565b5b806115d257508273ffffffffffffffffffffffffffffffffffffffff166115ba83610995565b73ffffffffffffffffffffffffffffffffffffffff16145b5b90509392505050565b5f5f5f90507a184f03e93ff9f4daa797ed6e38ed64bf6a1f0100000000000000008310611638577a184f03e93ff9f4daa797ed6e38ed64bf6a1f010000000000000000838161162e5761162d612340565b5b0492506040810190505b6d04ee2d6d415b85acef81000000008310611675576d04ee2d6d415b85acef8100000000838161166b5761166a612340565b5b0492506020810190505b662386f26fc1000083106116a457662386f26fc10000838161169a57611699612340565b5b0492506010810190505b6305f5e10083106116cd576305f5e10083816116c3576116c2612340565b5b0492506008810190505b61271083106116f25761271083816116e8576116e7612340565b5b0492506004810190505b60648310611715576064838161170b5761170a612340565b5b0492506002810190505b600a8310611724576001810190505b80915050919050565b5f73ffffffffffffffffffffffffffffffffffffffff168273ffffffffffffffffffffffffffffffffffffffff160361179d575f6040517f64a0ae920000000000000000000000000000000000000000000000000000000081526004016117949190611a11565b60405180910390fd5b5f6117a983835f6109e7565b90505f73ffffffffffffffffffffffffffffffffffffffff168173ffffffffffffffffffffffffffffffffffffffff161461181b575f6040517f73c6ac6e0000000000000000000000000000000000000000000000000000000081526004016118129190611a11565b60405180910390fd5b505050565b5f604051905090565b5f5ffd5b5f5ffd5b5f7fffffffff0000000000000000000000000000000000000000000000000000000082169050919050565b61186581611831565b811461186f575f5ffd5b50565b5f813590506118808161185c565b92915050565b5f6020828403121561189b5761189a611829565b5b5f6118a884828501611872565b91505092915050565b5f8115159050919050565b6118c5816118b1565b82525050565b5f6020820190506118de5f8301846118bc565b92915050565b5f81519050919050565b5f82825260208201905092915050565b8281835e5f83830152505050565b5f601f19601f8301169050919050565b5f611926826118e4565b61193081856118ee565b93506119408185602086016118fe565b6119498161190c565b840191505092915050565b5f6020820190508181035f83015261196c818461191c565b905092915050565b5f819050919050565b61198681611974565b8114611990575f5ffd5b50565b5f813590506119a18161197d565b92915050565b5f602082840312156119bc576119bb611829565b5b5f6119c984828501611993565b91505092915050565b5f73ffffffffffffffffffffffffffffffffffffffff82169050919050565b5f6119fb826119d2565b9050919050565b611a0b816119f1565b82525050565b5f602082019050611a245f830184611a02565b92915050565b611a33816119f1565b8114611a3d575f5ffd5b50565b5f81359050611a4e81611a2a565b92915050565b5f5f60408385031215611a6a57611a69611829565b5b5f611a7785828601611a40565b9250506020611a8885828601611993565b9150509250929050565b5f5f5f60608486031215611aa957611aa8611829565b5b5f611ab686828701611a40565b9350506020611ac786828701611a40565b9250506040611ad886828701611993565b9150509250925092565b5f60208284031215611af757611af6611829565b5b5f611b0484828501611a40565b91505092915050565b611b1681611974565b82525050565b5f602082019050611b2f5f830184611b0d565b92915050565b611b3e816118b1565b8114611b48575f5ffd5b50565b5f81359050611b5981611b35565b92915050565b5f5f60408385031215611b7557611b74611829565b5b5f611b8285828601611a40565b9250506020611b9385828601611b4b565b9150509250929050565b5f5ffd5b5f5ffd5b7f4e487b71000000000000000000000000000000000000000000000000000000005f52604160045260245ffd5b611bdb8261190c565b810181811067ffffffffffffffff82111715611bfa57611bf9611ba5565b5b80604052505050565b5f611c0c611820565b9050611c188282611bd2565b919050565b5f67ffffffffffffffff821115611c3757611c36611ba5565b5b611c408261190c565b9050602081019050919050565b828183375f83830152505050565b5f611c6d611c6884611c1d565b611c03565b905082815260208101848484011115611c8957611c88611ba1565b5b611c94848285611c4d565b509392505050565b5f82601f830112611cb057611caf611b9d565b5b8135611cc0848260208601611c5b565b91505092915050565b5f5f5f5f60808587031215611ce157611ce0611829565b5b5f611cee87828801611a40565b9450506020611cff87828801611a40565b9350506040611d1087828801611993565b925050606085013567ffffffffffffffff811115611d3157611d3061182d565b5b611d3d87828801611c9c565b91505092959194509250565b5f67ffffffffffffffff821115611d6357611d62611ba5565b5b611d6c8261190c565b9050602081019050919050565b5f611d8b611d8684611d49565b611c03565b905082815260208101848484011115611da757611da6611ba1565b5b611db2848285611c4d565b509392505050565b5f82601f830112611dce57611dcd611b9d565b5b8135611dde848260208601611d79565b91505092915050565b5f60208284031215611dfc57611dfb611829565b5b5f82013567ffffffffffffffff811115611e1957611e1861182d565b5b611e2584828501611dba565b91505092915050565b5f5f60408385031215611e4457611e43611829565b5b5f611e5185828601611a40565b9250506020611e6285828601611a40565b9150509250929050565b7f4e487b71000000000000000000000000000000000000000000000000000000005f52602260045260245ffd5b5f6002820490506001821680611eb057607f821691505b602082108103611ec357611ec2611e6c565b5b50919050565b5f606082019050611edc5f830186611a02565b611ee96020830185611b0d565b611ef66040830184611a02565b949350505050565b5f81905092915050565b5f611f12826118e4565b611f1c8185611efe565b9350611f2c8185602086016118fe565b80840191505092915050565b5f611f438285611f08565b9150611f4f8284611f08565b91508190509392505050565b7f4e487b71000000000000000000000000000000000000000000000000000000005f52601160045260245ffd5b5f611f9282611974565b91507fffffffffffffffffffffffffffffffffffffffffffffffffffffffffffffffff8203611fc457611fc3611f5b565b5b600182019050919050565b5f81519050919050565b5f82825260208201905092915050565b5f611ff382611fcf565b611ffd8185611fd9565b935061200d8185602086016118fe565b6120168161190c565b840191505092915050565b5f6080820190506120345f830187611a02565b6120416020830186611a02565b61204e6040830185611b0d565b81810360608301526120608184611fe9565b905095945050505050565b5f815190506120798161185c565b92915050565b5f6020828403121561209457612093611829565b5b5f6120a18482850161206b565b91505092915050565b5f819050815f5260205f209050919050565b5f6020601f8301049050919050565b5f82821b905092915050565b5f600883026121067fffffffffffffffffffffffffffffffffffffffffffffffffffffffffffffffff826120cb565b61211086836120cb565b95508019841693508086168417925050509392505050565b5f819050919050565b5f61214b61214661214184611974565b612128565b611974565b9050919050565b5f819050919050565b61216483612131565b61217861217082612152565b8484546120d7565b825550505050565b5f5f905090565b61218f612180565b61219a81848461215b565b505050565b5b818110156121bd576121b25f82612187565b6001810190506121a0565b5050565b601f821115612202576121d3816120aa565b6121dc846120bc565b810160208510156121eb578190505b6121ff6121f7856120bc565b83018261219f565b50505b505050565b5f82821c905092915050565b5f6122225f1984600802612207565b1980831691505092915050565b5f61223a8383612213565b9150826002028217905092915050565b612253826118e4565b67ffffffffffffffff81111561226c5761226b611ba5565b5b6122768254611e99565b6122818282856121c1565b5f60209050601f8311600181146122b2575f84156122a0578287015190505b6122aa858261222f565b865550612311565b601f1984166122c0866120aa565b5f5b828110156122e7578489015182556001820191506020850194506020810190506122c2565b868310156123045784890151612300601f891682612213565b8355505b6001600288020188555050505b505050505050565b5f60408201905061232c5f830185611a02565b6123396020830184611b0d565b9392505050565b7f4e487b71000000000000000000000000000000000000000000000000000000005f52601260045260245ffdfea2646970667358221220a420a485eaa65e74350e385d79113459f2621fbc6b65c462d0ab9103b9f8f3e264736f6c634300081c0033",
  "linkReferences": {},
  "deployedLinkReferences": {},
  "immutableReferences": {},
  "inputSourceName": "project/contracts/MyNFT.sol",
  "buildInfoId": "solc-0_8_28-ebf0301de36f837b1050cae821e411bf09202d9a"
}