{
  "_format": "hh3-artifact-1",
  "contractName": "NFTMarketplace",
  "sourceName": "contracts/NFTMarketplace.sol",
  "abi": [
    {
      "anonymous": false,
      "inputs": [
        {
          "indexed": false,
          "internalType": "address",
          "name": "nftContract",
          "type": "address"
        },
        {
          "indexed": false,
          "internalType": "uint256",
          "name": "tokenId",
          "type": "uint256"
        }
      ],
      "name": "NFTCancelled",
      "type": "event"
    },
    {
      "anonymous": false,
      "inputs": [
        {
          "indexed": false,
          "internalType": "address",
          "name": "nftContract",
          "type": "address"
        },
        {
          "indexed": false,
          "internalType": "uint256",
          "name": "tokenId",
          "type": "uint256"
        },
        {
          "indexed": false,
          "internalType": "address",
          "name": "seller",
          "type": "address"
        },
        {
          "indexed": false,
          "internalType": "uint256",
          "name": "price",
          "type": "uint256"
        }
      ],
      "name": "NFTListed",
      "type": "event"
    },
    {
      "anonymous": false,
      "inputs": [
        {
          "indexed": false,
          "internalType": "address",
          "name": "nftContract",
          "type": "address"
        },
        {
          "indexed": false,
          "internalType": "uint256",
          "name": "tokenId",
          "type": "uint256"
        },
        {
          "indexed": false,
          "internalType": "address",
          "name": "buyer",
          "type": "address"
        }
      ],
      "name": "NFTSold",
      "type": "event"
    },
    {
      "inputs": [
        {
          "internalType": "address",
          "name": "nftContract",
          "type": "address"
        },
        {
          "internalType": "uint256",
          "name": "tokenId",
          "type": "uint256"
        }
      ],
      "name": "buyNFT",
      "outputs": [],
      "stateMutability": "payable",
      "type": "function"
    },
    {
      "inputs": [
        {
          "internalType": "address",
          "name": "nftContract",
          "type": "address"
        },
        {
          "internalType": "uint256",
          "name": "tokenId",
          "type": "uint256"
        }
      ],
      "name": "cancelListing",
      "outputs": [],
      "stateMutability": "nonpayable",
      "type": "function"
    },
    {
      "inputs": [
        {
          "internalType": "address",
          "name": "nftContract",
          "type": "address"
        },
        {
          "internalType": "uint256",
          "name": "tokenId",
          "type": "uint256"
        },
        {
          "internalType": "uint256",
          "name": "price",
          "type": "uint256"
        }
      ],
      "name": "listNFT",
      "outputs": [],
      "stateMutability": "nonpayable",
      "type": "function"
    },
    {
      "inputs": [
        {
          "internalType": "address",
          "name": "",
          "type": "address"
        },
        {
          "internalType": "uint256",
          "name": "",
          "type": "uint256"
        }
      ],
      "name": "listings",
      "outputs": [
        {
          "internalType": "address",
          "name": "seller",
          "type": "address"
        },
        {
          "internalType": "uint256",
          "name": "price",
          "type": "uint256"
        }
      ],
      "stateMutability": "view",
      "type": "function"
    }
  ],
  "bytecode": "0x6080604052348015600e575f5ffd5b506111688061001c5f395ff3fe60806040526004361061003d575f3560e01c806207df3014610041578063a82ba76f1461007e578063ad05f1b41461009a578063b2ddee06146100c2575b5f5ffd5b34801561004c575f5ffd5b5061006760048036038101906100629190610b61565b6100ea565b604051610075929190610bbd565b60405180910390f35b61009860048036038101906100939190610b61565b610133565b005b3480156100a5575f5ffd5b506100c060048036038101906100bb9190610be4565b610565565b005b3480156100cd575f5ffd5b506100e860048036038101906100e39190610b61565b61087f565b005b5f602052815f5260405f20602052805f5260405f205f9150915050805f015f9054906101000a900473ffffffffffffffffffffffffffffffffffffffff16908060010154905082565b5f8290505f5f5f8573ffffffffffffffffffffffffffffffffffffffff1673ffffffffffffffffffffffffffffffffffffffff1681526020019081526020015f205f8481526020019081526020015f206040518060400160405290815f82015f9054906101000a900473ffffffffffffffffffffffffffffffffffffffff1673ffffffffffffffffffffffffffffffffffffffff1673ffffffffffffffffffffffffffffffffffffffff16815260200160018201548152505090505f73ffffffffffffffffffffffffffffffffffffffff16815f015173ffffffffffffffffffffffffffffffffffffffff160361025f576040517f08c379a000000000000000000000000000000000000000000000000000000000815260040161025690610c8e565b60405180910390fd5b806020015134146102a5576040517f08c379a000000000000000000000000000000000000000000000000000000000815260040161029c90610cf6565b60405180910390fd5b805f015173ffffffffffffffffffffffffffffffffffffffff168273ffffffffffffffffffffffffffffffffffffffff16636352211e856040518263ffffffff1660e01b81526004016102f89190610d14565b602060405180830381865afa158015610313573d5f5f3e3d5ffd5b505050506040513d601f19601f820116820180604052508101906103379190610d41565b73ffffffffffffffffffffffffffffffffffffffff161461038d576040517f08c379a000000000000000000000000000000000000000000000000000000000815260040161038490610db6565b60405180910390fd5b5f815f015173ffffffffffffffffffffffffffffffffffffffff1682602001516040516103b990610e01565b5f6040518083038185875af1925050503d805f81146103f3576040519150601f19603f3d011682016040523d82523d5f602084013e6103f8565b606091505b505090508061043c576040517f08c379a000000000000000000000000000000000000000000000000000000000815260040161043390610e5f565b60405180910390fd5b8273ffffffffffffffffffffffffffffffffffffffff166342842e0e835f015133876040518463ffffffff1660e01b815260040161047c93929190610e7d565b5f604051808303815f87803b158015610493575f5ffd5b505af11580156104a5573d5f5f3e3d5ffd5b505050505f5f8673ffffffffffffffffffffffffffffffffffffffff1673ffffffffffffffffffffffffffffffffffffffff1681526020019081526020015f205f8581526020019081526020015f205f5f82015f6101000a81549073ffffffffffffffffffffffffffffffffffffffff0219169055600182015f905550507f949c3bc99b79b9ee35739c9992c4e9b2b075993bacce5d5f7a670cb2148cf09885853360405161055693929190610eb2565b60405180910390a15050505050565b5f8390505f82116105ab576040517f08c379a00000000000000000000000000000000000000000000000000000000081526004016105a290610f31565b60405180910390fd5b3373ffffffffffffffffffffffffffffffffffffffff168173ffffffffffffffffffffffffffffffffffffffff16636352211e856040518263ffffffff1660e01b81526004016105fb9190610d14565b602060405180830381865afa158015610616573d5f5f3e3d5ffd5b505050506040513d601f19601f8201168201806040525081019061063a9190610d41565b73ffffffffffffffffffffffffffffffffffffffff1614610690576040517f08c379a000000000000000000000000000000000000000000000000000000000815260040161068790610f99565b60405180910390fd5b3073ffffffffffffffffffffffffffffffffffffffff168173ffffffffffffffffffffffffffffffffffffffff1663081812fc856040518263ffffffff1660e01b81526004016106e09190610d14565b602060405180830381865afa1580156106fb573d5f5f3e3d5ffd5b505050506040513d601f19601f8201168201806040525081019061071f9190610d41565b73ffffffffffffffffffffffffffffffffffffffff1614610775576040517f08c379a000000000000000000000000000000000000000000000000000000000815260040161076c90611001565b60405180910390fd5b60405180604001604052803373ffffffffffffffffffffffffffffffffffffffff168152602001838152505f5f8673ffffffffffffffffffffffffffffffffffffffff1673ffffffffffffffffffffffffffffffffffffffff1681526020019081526020015f205f8581526020019081526020015f205f820151815f015f6101000a81548173ffffffffffffffffffffffffffffffffffffffff021916908373ffffffffffffffffffffffffffffffffffffffff160217905550602082015181600101559050507f392a0f172cb29479635d0b2219b2f96ef24f74dfdf328cb09f1496efe6cfddbe84843385604051610871949392919061101f565b60405180910390a150505050565b5f5f5f8473ffffffffffffffffffffffffffffffffffffffff1673ffffffffffffffffffffffffffffffffffffffff1681526020019081526020015f205f8381526020019081526020015f206040518060400160405290815f82015f9054906101000a900473ffffffffffffffffffffffffffffffffffffffff1673ffffffffffffffffffffffffffffffffffffffff1673ffffffffffffffffffffffffffffffffffffffff16815260200160018201548152505090505f73ffffffffffffffffffffffffffffffffffffffff16815f015173ffffffffffffffffffffffffffffffffffffffff16036109a7576040517f08c379a000000000000000000000000000000000000000000000000000000000815260040161099e906110ac565b60405180910390fd5b3373ffffffffffffffffffffffffffffffffffffffff16815f015173ffffffffffffffffffffffffffffffffffffffff1614610a18576040517f08c379a0000000000000000000000000000000000000000000000000000000008152600401610a0f90611114565b60405180910390fd5b5f5f8473ffffffffffffffffffffffffffffffffffffffff1673ffffffffffffffffffffffffffffffffffffffff1681526020019081526020015f205f8381526020019081526020015f205f5f82015f6101000a81549073ffffffffffffffffffffffffffffffffffffffff0219169055600182015f905550507f836c912cd7a66143c1ec42cd342f88d6062574ed4d898ad5281172724f0f32a28383604051610ac3929190610bbd565b60405180910390a1505050565b5f5ffd5b5f73ffffffffffffffffffffffffffffffffffffffff82169050919050565b5f610afd82610ad4565b9050919050565b610b0d81610af3565b8114610b17575f5ffd5b50565b5f81359050610b2881610b04565b92915050565b5f819050919050565b610b4081610b2e565b8114610b4a575f5ffd5b50565b5f81359050610b5b81610b37565b92915050565b5f5f60408385031215610b7757610b76610ad0565b5b5f610b8485828601610b1a565b9250506020610b9585828601610b4d565b9150509250929050565b610ba881610af3565b82525050565b610bb781610b2e565b82525050565b5f604082019050610bd05f830185610b9f565b610bdd6020830184610bae565b9392505050565b5f5f5f60608486031215610bfb57610bfa610ad0565b5b5f610c0886828701610b1a565b9350506020610c1986828701610b4d565b9250506040610c2a86828701610b4d565b9150509250925092565b5f82825260208201905092915050565b7f4e4654206e6f74206c69737465640000000000000000000000000000000000005f82015250565b5f610c78600e83610c34565b9150610c8382610c44565b602082019050919050565b5f6020820190508181035f830152610ca581610c6c565b9050919050565b7f496e636f7272656374207072697a6500000000000000000000000000000000005f82015250565b5f610ce0600f83610c34565b9150610ceb82610cac565b602082019050919050565b5f6020820190508181035f830152610d0d81610cd4565b9050919050565b5f602082019050610d275f830184610bae565b92915050565b5f81519050610d3b81610b04565b92915050565b5f60208284031215610d5657610d55610ad0565b5b5f610d6384828501610d2d565b91505092915050565b7f53656c6c6572206e6f206c6f6e676572206f776e73204e4654000000000000005f82015250565b5f610da0601983610c34565b9150610dab82610d6c565b602082019050919050565b5f6020820190508181035f830152610dcd81610d94565b9050919050565b5f81905092915050565b50565b5f610dec5f83610dd4565b9150610df782610dde565b5f82019050919050565b5f610e0b82610de1565b9150819050919050565b7f455448207472616e73666572206661696c6564000000000000000000000000005f82015250565b5f610e49601383610c34565b9150610e5482610e15565b602082019050919050565b5f6020820190508181035f830152610e7681610e3d565b9050919050565b5f606082019050610e905f830186610b9f565b610e9d6020830185610b9f565b610eaa6040830184610bae565b949350505050565b5f606082019050610ec55f830186610b9f565b610ed26020830185610bae565b610edf6040830184610b9f565b949350505050565b7f5072697a65206d7573742062652067726561746572207468616e2030000000005f82015250565b5f610f1b601c83610c34565b9150610f2682610ee7565b602082019050919050565b5f6020820190508181035f830152610f4881610f0f565b9050919050565b7f596f7520617265206e6f74206e6674206f776e657200000000000000000000005f82015250565b5f610f83601583610c34565b9150610f8e82610f4f565b602082019050919050565b5f6020820190508181035f830152610fb081610f77565b9050919050565b7f4d61726b6574706c616365206e6f7420617070726f76656400000000000000005f82015250565b5f610feb601883610c34565b9150610ff682610fb7565b602082019050919050565b5f6020820190508181035f83015261101881610fdf565b9050919050565b5f6080820190506110325f830187610b9f565b61103f6020830186610bae565b61104c6040830185610b9f565b6110596060830184610bae565b95945050505050565b7f6e6f74206c6973746564000000000000000000000000000000000000000000005f82015250565b5f611096600a83610c34565b91506110a182611062565b602082019050919050565b5f6020820190508181035f8301526110c38161108a565b9050919050565b7f6e6f74206f776e657200000000000000000000000000000000000000000000005f82015250565b5f6110fe600983610c34565b9150611109826110ca565b602082019050919050565b5f6020820190508181035f83015261112b816110f2565b905091905056fea26469706673582212204e9f974bbb19f8f5b432a67ed832d18f1c897e9d41fceae424134f2bc836f7c264736f6c634300081c0033",
  "linkReferences": {},
  "deployedLinkReferences": {},
  "immutableReferences": {},
  "inputSourceName": "project/contracts/NFTMarketplace.sol",
  "buildInfoId": "solc-0_8_28-f5ef2727ef7d562a03ad14c7e961da608c49f492"
}