{
  "_format": "hh3-artifact-1",
  "contractName": "NFTMarketplace",
  "sourceName": "contracts/NFTMarketplace.sol",
  "abi": [
    {
      "anonymous": false,
      "inputs": [
        {
          "indexed": false,
          "internalType": "address",
          "name": "nftContract",
          "type": "address"
        },
        {
          "indexed": false,
          "internalType": "uint256",
          "name": "tokenId",
          "type": "uint256"
        }
      ],
      "name": "NFTCancelled",
      "type": "event"
    },
    {
      "anonymous": false,
      "inputs": [
        {
          "indexed": false,
          "internalType": "address",
          "name": "nftContract",
          "type": "address"
        },
        {
          "indexed": false,
          "internalType": "uint256",
          "name": "tokenId",
          "type": "uint256"
        },
        {
          "indexed": false,
          "internalType": "address",
          "name": "seller",
          "type": "address"
        },
        {
          "indexed": false,
          "internalType": "uint256",
          "name": "price",
          "type": "uint256"
        }
      ],
      "name": "NFTListed",
      "type": "event"
    },
    {
      "anonymous": false,
      "inputs": [
        {
          "indexed": false,
          "internalType": "address",
          "name": "nftContract",
          "type": "address"
        },
        {
          "indexed": false,
          "internalType": "uint256",
          "name": "tokenId",
          "type": "uint256"
        },
        {
          "indexed": false,
          "internalType": "address",
          "name": "buyer",
          "type": "address"
        }
      ],
      "name": "NFTSold",
      "type": "event"
    },
    {
      "inputs": [
        {
          "internalType": "uint256",
          "name": "",
          "type": "uint256"
        }
      ],
      "name": "allListings",
      "outputs": [
        {
          "internalType": "address",
          "name": "nftContract",
          "type": "address"
        },
        {
          "internalType": "uint256",
          "name": "tokenId",
          "type": "uint256"
        },
        {
          "internalType": "address",
          "name": "seller",
          "type": "address"
        },
        {
          "internalType": "uint256",
          "name": "price",
          "type": "uint256"
        },
        {
          "internalType": "bool",
          "name": "active",
          "type": "bool"
        }
      ],
      "stateMutability": "view",
      "type": "function"
    },
    {
      "inputs": [
        {
          "internalType": "address",
          "name": "nftContract",
          "type": "address"
        },
        {
          "internalType": "uint256",
          "name": "tokenId",
          "type": "uint256"
        }
      ],
      "name": "buyNFT",
      "outputs": [],
      "stateMutability": "payable",
      "type": "function"
    },
    {
      "inputs": [
        {
          "internalType": "address",
          "name": "nftContract",
          "type": "address"
        },
        {
          "internalType": "uint256",
          "name": "tokenId",
          "type": "uint256"
        }
      ],
      "name": "cancelListing",
      "outputs": [],
      "stateMutability": "nonpayable",
      "type": "function"
    },
    {
      "inputs": [],
      "name": "getAllListings",
      "outputs": [
        {
          "components": [
            {
              "internalType": "address",
              "name": "nftContract",
              "type": "address"
            },
            {
              "internalType": "uint256",
              "name": "tokenId",
              "type": "uint256"
            },
            {
              "internalType": "address",
              "name": "seller",
              "type": "address"
            },
            {
              "internalType": "uint256",
              "name": "price",
              "type": "uint256"
            },
            {
              "internalType": "bool",
              "name": "active",
              "type": "bool"
            }
          ],
          "internalType": "struct NFTMarketplace.MarketItem[]",
          "name": "",
          "type": "tuple[]"
        }
      ],
      "stateMutability": "view",
      "type": "function"
    },
    {
      "inputs": [
        {
          "internalType": "address",
          "name": "nftContract",
          "type": "address"
        },
        {
          "internalType": "uint256",
          "name": "tokenId",
          "type": "uint256"
        },
        {
          "internalType": "uint256",
          "name": "price",
          "type": "uint256"
        }
      ],
      "name": "listNFT",
      "outputs": [],
      "stateMutability": "nonpayable",
      "type": "function"
    },
    {
      "inputs": [
        {
          "internalType": "address",
          "name": "",
          "type": "address"
        },
        {
          "internalType": "uint256",
          "name": "",
          "type": "uint256"
        }
      ],
      "name": "listings",
      "outputs": [
        {
          "internalType": "address",
          "name": "seller",
          "type": "address"
        },
        {
          "internalType": "uint256",
          "name": "price",
          "type": "uint256"
        }
      ],
      "stateMutability": "view",
      "type": "function"
    }
  ],
  "bytecode": "0x6080604052348015600e575f5ffd5b506119008061001c5f395ff3fe608060405260043610610053575f3560e01c806207df30146100575780630eeaa2ef14610094578063a82ba76f146100d4578063ad05f1b4146100f0578063ae73ccec14610118578063b2ddee0614610142575b5f5ffd5b348015610062575f5ffd5b5061007d600480360381019061007891906110db565b61016a565b60405161008b929190611137565b60405180910390f35b34801561009f575f5ffd5b506100ba60048036038101906100b5919061115e565b6101b4565b6040516100cb9594939291906111a3565b60405180910390f35b6100ee60048036038101906100e991906110db565b61023e565b005b3480156100fb575f5ffd5b50610116600480360381019061011191906111f4565b610770565b005b348015610123575f5ffd5b5061012c610bc7565b604051610139919061137f565b60405180910390f35b34801561014d575f5ffd5b50610168600480360381019061016391906110db565b610cf9565b005b6001602052815f5260405f20602052805f5260405f205f9150915050805f015f9054906101000a900473ffffffffffffffffffffffffffffffffffffffff16908060010154905082565b5f81815481106101c2575f80fd5b905f5260205f2090600502015f91509050805f015f9054906101000a900473ffffffffffffffffffffffffffffffffffffffff1690806001015490806002015f9054906101000a900473ffffffffffffffffffffffffffffffffffffffff1690806003015490806004015f9054906101000a900460ff16905085565b5f8290505f60015f8573ffffffffffffffffffffffffffffffffffffffff1673ffffffffffffffffffffffffffffffffffffffff1681526020019081526020015f205f8481526020019081526020015f206040518060400160405290815f82015f9054906101000a900473ffffffffffffffffffffffffffffffffffffffff1673ffffffffffffffffffffffffffffffffffffffff1673ffffffffffffffffffffffffffffffffffffffff16815260200160018201548152505090505f73ffffffffffffffffffffffffffffffffffffffff16815f015173ffffffffffffffffffffffffffffffffffffffff160361036b576040517f08c379a0000000000000000000000000000000000000000000000000000000008152600401610362906113f9565b60405180910390fd5b806020015134146103b1576040517f08c379a00000000000000000000000000000000000000000000000000000000081526004016103a890611461565b60405180910390fd5b805f015173ffffffffffffffffffffffffffffffffffffffff168273ffffffffffffffffffffffffffffffffffffffff16636352211e856040518263ffffffff1660e01b8152600401610404919061147f565b602060405180830381865afa15801561041f573d5f5f3e3d5ffd5b505050506040513d601f19601f8201168201806040525081019061044391906114ac565b73ffffffffffffffffffffffffffffffffffffffff1614610499576040517f08c379a000000000000000000000000000000000000000000000000000000000815260040161049090611521565b60405180910390fd5b5f815f015173ffffffffffffffffffffffffffffffffffffffff1682602001516040516104c59061156c565b5f6040518083038185875af1925050503d805f81146104ff576040519150601f19603f3d011682016040523d82523d5f602084013e610504565b606091505b5050905080610548576040517f08c379a000000000000000000000000000000000000000000000000000000000815260040161053f906115ca565b60405180910390fd5b8273ffffffffffffffffffffffffffffffffffffffff166342842e0e835f015133876040518463ffffffff1660e01b8152600401610588939291906115e8565b5f604051808303815f87803b15801561059f575f5ffd5b505af11580156105b1573d5f5f3e3d5ffd5b505050505f5f90505b5f805490508110156106b2578573ffffffffffffffffffffffffffffffffffffffff165f82815481106105f0576105ef61161d565b5b905f5260205f2090600502015f015f9054906101000a900473ffffffffffffffffffffffffffffffffffffffff1673ffffffffffffffffffffffffffffffffffffffff161480156106625750845f82815481106106505761064f61161d565b5b905f5260205f20906005020160010154145b156106a5575f5f828154811061067b5761067a61161d565b5b905f5260205f2090600502016004015f6101000a81548160ff0219169083151502179055506106b2565b80806001019150506105ba565b5060015f8673ffffffffffffffffffffffffffffffffffffffff1673ffffffffffffffffffffffffffffffffffffffff1681526020019081526020015f205f8581526020019081526020015f205f5f82015f6101000a81549073ffffffffffffffffffffffffffffffffffffffff0219169055600182015f905550507f949c3bc99b79b9ee35739c9992c4e9b2b075993bacce5d5f7a670cb2148cf0988585336040516107619392919061164a565b60405180910390a15050505050565b5f8390505f82116107b6576040517f08c379a00000000000000000000000000000000000000000000000000000000081526004016107ad906116c9565b60405180910390fd5b3373ffffffffffffffffffffffffffffffffffffffff168173ffffffffffffffffffffffffffffffffffffffff16636352211e856040518263ffffffff1660e01b8152600401610806919061147f565b602060405180830381865afa158015610821573d5f5f3e3d5ffd5b505050506040513d601f19601f8201168201806040525081019061084591906114ac565b73ffffffffffffffffffffffffffffffffffffffff161461089b576040517f08c379a000000000000000000000000000000000000000000000000000000000815260040161089290611731565b60405180910390fd5b3073ffffffffffffffffffffffffffffffffffffffff168173ffffffffffffffffffffffffffffffffffffffff1663081812fc856040518263ffffffff1660e01b81526004016108eb919061147f565b602060405180830381865afa158015610906573d5f5f3e3d5ffd5b505050506040513d601f19601f8201168201806040525081019061092a91906114ac565b73ffffffffffffffffffffffffffffffffffffffff1614610980576040517f08c379a000000000000000000000000000000000000000000000000000000000815260040161097790611799565b60405180910390fd5b60405180604001604052803373ffffffffffffffffffffffffffffffffffffffff1681526020018381525060015f8673ffffffffffffffffffffffffffffffffffffffff1673ffffffffffffffffffffffffffffffffffffffff1681526020019081526020015f205f8581526020019081526020015f205f820151815f015f6101000a81548173ffffffffffffffffffffffffffffffffffffffff021916908373ffffffffffffffffffffffffffffffffffffffff160217905550602082015181600101559050505f6040518060a001604052808673ffffffffffffffffffffffffffffffffffffffff1681526020018581526020013373ffffffffffffffffffffffffffffffffffffffff16815260200184815260200160011515815250908060018154018082558091505060019003905f5260205f2090600502015f909190919091505f820151815f015f6101000a81548173ffffffffffffffffffffffffffffffffffffffff021916908373ffffffffffffffffffffffffffffffffffffffff160217905550602082015181600101556040820151816002015f6101000a81548173ffffffffffffffffffffffffffffffffffffffff021916908373ffffffffffffffffffffffffffffffffffffffff160217905550606082015181600301556080820151816004015f6101000a81548160ff02191690831515021790555050507f392a0f172cb29479635d0b2219b2f96ef24f74dfdf328cb09f1496efe6cfddbe84843385604051610bb994939291906117b7565b60405180910390a150505050565b60605f805480602002602001604051908101604052809291908181526020015f905b82821015610cf0578382905f5260205f2090600502016040518060a00160405290815f82015f9054906101000a900473ffffffffffffffffffffffffffffffffffffffff1673ffffffffffffffffffffffffffffffffffffffff1673ffffffffffffffffffffffffffffffffffffffff16815260200160018201548152602001600282015f9054906101000a900473ffffffffffffffffffffffffffffffffffffffff1673ffffffffffffffffffffffffffffffffffffffff1673ffffffffffffffffffffffffffffffffffffffff16815260200160038201548152602001600482015f9054906101000a900460ff16151515158152505081526020019060010190610be9565b50505050905090565b5f60015f8473ffffffffffffffffffffffffffffffffffffffff1673ffffffffffffffffffffffffffffffffffffffff1681526020019081526020015f205f8381526020019081526020015f206040518060400160405290815f82015f9054906101000a900473ffffffffffffffffffffffffffffffffffffffff1673ffffffffffffffffffffffffffffffffffffffff1673ffffffffffffffffffffffffffffffffffffffff16815260200160018201548152505090505f73ffffffffffffffffffffffffffffffffffffffff16815f015173ffffffffffffffffffffffffffffffffffffffff1603610e22576040517f08c379a0000000000000000000000000000000000000000000000000000000008152600401610e1990611844565b60405180910390fd5b3373ffffffffffffffffffffffffffffffffffffffff16815f015173ffffffffffffffffffffffffffffffffffffffff1614610e93576040517f08c379a0000000000000000000000000000000000000000000000000000000008152600401610e8a906118ac565b60405180910390fd5b5f5f90505b5f80549050811015610f90578373ffffffffffffffffffffffffffffffffffffffff165f8281548110610ece57610ecd61161d565b5b905f5260205f2090600502015f015f9054906101000a900473ffffffffffffffffffffffffffffffffffffffff1673ffffffffffffffffffffffffffffffffffffffff16148015610f405750825f8281548110610f2e57610f2d61161d565b5b905f5260205f20906005020160010154145b15610f83575f5f8281548110610f5957610f5861161d565b5b905f5260205f2090600502016004015f6101000a81548160ff021916908315150217905550610f90565b8080600101915050610e98565b5060015f8473ffffffffffffffffffffffffffffffffffffffff1673ffffffffffffffffffffffffffffffffffffffff1681526020019081526020015f205f8381526020019081526020015f205f5f82015f6101000a81549073ffffffffffffffffffffffffffffffffffffffff0219169055600182015f905550507f836c912cd7a66143c1ec42cd342f88d6062574ed4d898ad5281172724f0f32a2838360405161103d929190611137565b60405180910390a1505050565b5f5ffd5b5f73ffffffffffffffffffffffffffffffffffffffff82169050919050565b5f6110778261104e565b9050919050565b6110878161106d565b8114611091575f5ffd5b50565b5f813590506110a28161107e565b92915050565b5f819050919050565b6110ba816110a8565b81146110c4575f5ffd5b50565b5f813590506110d5816110b1565b92915050565b5f5f604083850312156110f1576110f061104a565b5b5f6110fe85828601611094565b925050602061110f858286016110c7565b9150509250929050565b6111228161106d565b82525050565b611131816110a8565b82525050565b5f60408201905061114a5f830185611119565b6111576020830184611128565b9392505050565b5f602082840312156111735761117261104a565b5b5f611180848285016110c7565b91505092915050565b5f8115159050919050565b61119d81611189565b82525050565b5f60a0820190506111b65f830188611119565b6111c36020830187611128565b6111d06040830186611119565b6111dd6060830185611128565b6111ea6080830184611194565b9695505050505050565b5f5f5f6060848603121561120b5761120a61104a565b5b5f61121886828701611094565b9350506020611229868287016110c7565b925050604061123a868287016110c7565b9150509250925092565b5f81519050919050565b5f82825260208201905092915050565b5f819050602082019050919050565b6112768161106d565b82525050565b611285816110a8565b82525050565b61129481611189565b82525050565b60a082015f8201516112ae5f85018261126d565b5060208201516112c1602085018261127c565b5060408201516112d4604085018261126d565b5060608201516112e7606085018261127c565b5060808201516112fa608085018261128b565b50505050565b5f61130b838361129a565b60a08301905092915050565b5f602082019050919050565b5f61132d82611244565b611337818561124e565b93506113428361125e565b805f5b838110156113725781516113598882611300565b975061136483611317565b925050600181019050611345565b5085935050505092915050565b5f6020820190508181035f8301526113978184611323565b905092915050565b5f82825260208201905092915050565b7f4e4654206e6f74206c69737465640000000000000000000000000000000000005f82015250565b5f6113e3600e8361139f565b91506113ee826113af565b602082019050919050565b5f6020820190508181035f830152611410816113d7565b9050919050565b7f496e636f7272656374207072697a6500000000000000000000000000000000005f82015250565b5f61144b600f8361139f565b915061145682611417565b602082019050919050565b5f6020820190508181035f8301526114788161143f565b9050919050565b5f6020820190506114925f830184611128565b92915050565b5f815190506114a68161107e565b92915050565b5f602082840312156114c1576114c061104a565b5b5f6114ce84828501611498565b91505092915050565b7f53656c6c6572206e6f206c6f6e676572206f776e73204e4654000000000000005f82015250565b5f61150b60198361139f565b9150611516826114d7565b602082019050919050565b5f6020820190508181035f830152611538816114ff565b9050919050565b5f81905092915050565b50565b5f6115575f8361153f565b915061156282611549565b5f82019050919050565b5f6115768261154c565b9150819050919050565b7f455448207472616e73666572206661696c6564000000000000000000000000005f82015250565b5f6115b460138361139f565b91506115bf82611580565b602082019050919050565b5f6020820190508181035f8301526115e1816115a8565b9050919050565b5f6060820190506115fb5f830186611119565b6116086020830185611119565b6116156040830184611128565b949350505050565b7f4e487b71000000000000000000000000000000000000000000000000000000005f52603260045260245ffd5b5f60608201905061165d5f830186611119565b61166a6020830185611128565b6116776040830184611119565b949350505050565b7f5072697a65206d7573742062652067726561746572207468616e2030000000005f82015250565b5f6116b3601c8361139f565b91506116be8261167f565b602082019050919050565b5f6020820190508181035f8301526116e0816116a7565b9050919050565b7f596f7520617265206e6f74206e6674206f776e657200000000000000000000005f82015250565b5f61171b60158361139f565b9150611726826116e7565b602082019050919050565b5f6020820190508181035f8301526117488161170f565b9050919050565b7f4d61726b6574706c616365206e6f7420617070726f76656400000000000000005f82015250565b5f61178360188361139f565b915061178e8261174f565b602082019050919050565b5f6020820190508181035f8301526117b081611777565b9050919050565b5f6080820190506117ca5f830187611119565b6117d76020830186611128565b6117e46040830185611119565b6117f16060830184611128565b95945050505050565b7f6e6f74206c6973746564000000000000000000000000000000000000000000005f82015250565b5f61182e600a8361139f565b9150611839826117fa565b602082019050919050565b5f6020820190508181035f83015261185b81611822565b9050919050565b7f6e6f74206f776e657200000000000000000000000000000000000000000000005f82015250565b5f61189660098361139f565b91506118a182611862565b602082019050919050565b5f6020820190508181035f8301526118c38161188a565b905091905056fea26469706673582212204f26f46eece911b67bc636364f847b4f84bf3e3ecab3542b08e7244a73ee9d4d64736f6c634300081c0033",
  "linkReferences": {},
  "deployedLinkReferences": {},
  "immutableReferences": {},
  "inputSourceName": "project/contracts/NFTMarketplace.sol",
  "buildInfoId": "solc-0_8_28-156e2fb26a47c612dade027e9c1d9811e987b203"
}